:100000000C94B5000C94D2000C94D2000C94D20045
:100010000C94D2000C94D2000C94D2000C94D20018
:100020000C94D2000C94D2000C94D2000C94D40006
:100030000C94D2000C94D2000C94D2000C94D200F8
:100040000C94D2000C94D2000C94D2000C94D200E8
:100050000C94D2000C94D2000C94D2000C94D200D8
:100060000C94D2000C94D2006E616E00696E660032
:1000700000407A10F35A00A0724E18090010A5D45F
:10008000E80000E87648170000E40B54020000CABC
:100090009A3B000000E1F505000080969800000002
:1000A00040420F000000A086010000001027000061
:1000B0000000E803000000006400000000000A00E7
:1000C000000000000100000000002C76D888DC67EA
:1000D0004F0823DFC1DFAE59E1B1B796E5E3E45342
:1000E000C63AE651997696E8E6C28426EB898C9B5F
:1000F00062ED407C6FFCEFBC9C9F40F2BAA56FA5FF
:10010000F490055A2AF75C936B6CF9676DC11BFC80
:10011000E0E40D47FEF520E6B500D0ED902E03009B
:10012000943577050080841E080000204E0A0000E8
:1001300000C80C333333330F986E12831141EF8DA7
:100140002114893BE65516CFFEE6DB18D1844B38E7
:100150001BF77C1D901DA4BBE424203284725E2218
:100160008100C9F124ECA1E53D2711241FBECFEF8A
:10017000D8E0DEBFCDBF11E0A0E0B1E0EAE3F8E1F6
:1001800002C005900D92AC33B107D9F721E0ACE382
:10019000B1E001C01D92A534B207E1F70E949206BA
:1001A0000C941B0C0C9400001F920F920FB60F9230
:1001B00011248F939F9380913C01882349F0809173
:1001C0003D0190913E01019690933E0180933D0147
:1001D0009BB188E089278BB99F918F910F900FBEBB
:1001E0000F901F901895A0914001B0914101129677
:1001F000ED91FC911397908121E030E016960C90E0
:1002000002C0220F331F0A94E2F72095292320838E
:100210008EBD0DB407FEFDCFA0914001B09141010C
:100220001296ED91FC911397208181E090E0169653
:100230000C9002C0880F991F0A94E2F7822B8083EA
:100240000895A0914001B09141011296ED91FC9169
:100250001397908121E030E017960C9002C0220F96
:10026000331F0A94E2F72095292320830E94F3008C
:1002700087E893E10197F1F700C00000089520910D
:100280003F0121116AC0009709F467C090934101B2
:10029000809340012FE38DE093E021508040904017
:1002A000E1F700C00000E0914001F0914101A08120
:1002B000B1813C9181E090E0BC01048002C0660FF6
:1002C000771F0A94E2F7AC01058002C0440F551F66
:1002D0000A94E2F7462B242F232BAC01068002C0A0
:1002E000440F551F0A94E2F7422B9C01078002C07D
:1002F000220F331F0A94E2F7242B2C93A281B3819F
:100300002C91068002C0880F991F0A94E2F7822B75
:100310008C938CB581658CBD88E30E94210189E3B3
:100320000E94210185E10E9421018FE70E942101A5
:100330008FE50E94210189E60E9421018CE00E9444
:10034000210181E00E94210186E00E94210181E0DB
:1003500080933F0180E090E008958FEF9FEF089534
:10036000109241011092400110923F010895833094
:1003700068F4603158F490E1899F600D1124862F54
:1003800080580E94210180E090E008958FEF9FEF58
:1003900008950F931F93CF93DF93EC0101E010E0DA
:1003A00089918823E1F0A0914001B091410112961A
:1003B000ED91FC9113979081980117960C9002C0D3
:1003C000220F331F0A94E2F7292B20830E94F300A7
:1003D00087E893E10197F1F700C00000E1CFDF91DA
:1003E000CF911F910F910895E0914301F091440145
:1003F000818592858130910579F048F082309105B0
:1004000091F00397A1F082E48A95F1F70FC087E895
:1004100093E10197F1F704C083EF91E00197F1F7C1
:1004200000C00000089592E49A95F1F700C0089585
:10043000FC0180914201811145C0F0934401E09399
:100440004301A081B1814C9181E090E09C01068044
:1004500002C0220F331F0A94E2F7242B2C93A281AF
:10046000B3814C919C01068002C0220F331F0A9475
:10047000E2F7242B2C93A081B1814C919C01078041
:1004800002C0220F331F0A94E2F7242B2C93A2817F
:10049000B3814C919C01078002C0220F331F0A9444
:1004A000E2F7242B2C93A081B1812C91008402C00F
:1004B000880F991F0A94E2F7809582238C9381E03C
:1004C000809342010895CF92DF92EF92FF920F93B3
:1004D0001F93CF93DF9380914201882309F472C068
:1004E0001FB7F894A0914301B09144011296ED9189
:1004F000FC911397208181E090E016960C9002C049
:10050000880F991F0A94E2F78095822380830E94C6
:10051000F40100E2C12CD12C7601C1E0D0E0A09121
:100520004301B09144011296ED91FC911397908193
:100530009E0117960C9002C0220F331F0A94E2F717
:10054000822F8095892380830E94F401CC0CDD1CCE
:10055000EE1CFF1CE0914301F0914401A481B581A0
:100560008C9190E0008402C0959587950A94E2F7FB
:1005700080FF02C06894C0F8A281B3812C91CE01A3
:10058000078002C0880F991F0A94E2F7822B8C9390
:100590000E94F401015019F6A0914301B091440169
:1005A0001296ED91FC911397208181E090E01696D0
:1005B0000C9002C0880F991F0A94E2F7822B808367
:1005C0001FBF04C0CC24CA94DC2C7601D701C6011D
:1005D00087709927AA27BB27892B8A2B8B2BC9F4D5
:1005E000D701C60122E1B695A795979587952A95DB
:1005F000D1F7BC01CD01F7FE03C0706C8F6F9F6F08
:100600000E94550920E030E040E85EE30E94070ABE
:1006100004C060E070EC89E794ECDF91CF911F910A
:100620000F91FF90EF90DF90CF900895A3E1B0E09D
:10063000ECE1F3E00C943A086C014B012A01FC0157
:1006400017821682838181FF43C3AE014F5F5F4FE4
:100650003A01F6019381F40193FD859193FF819115
:100660004F01882309F430C3853239F493FD859115
:1006700093FF81914F01853239F4B60190E00E94D9
:10068000620B52012501E5CF10E0F12C20E0203271
:10069000A0F48B3269F030F4803259F0833269F47F
:1006A00020612CC08D3239F0803339F4216026C0AE
:1006B0002260246023C0286021C027FD27C030EDC0
:1006C000380F3A3078F426FF06C0FAE01F9F300D4D
:1006D0001124132F13C04AE0F49E300D1124F32E81
:1006E00020620CC08E3221F426FDEEC2206406C0CA
:1006F0008C3611F4206802C0883641F4F40193FD71
:10070000859193FF81914F018111C1CF9BEB980F90
:10071000933018F42061805E06C09BE9980F9330F7
:1007200008F071C12F7E26FF16E02F73322E85361A
:1007300019F42064322E08C0863621F4F22FF068B6
:100740003F2E02C01111115037FE07C01C3350F468
:10075000EE24E394E10E27E00BC0183038F027E0D8
:1007600017E005C027E04CE3E42E02C0212FE12C66
:10077000520144E0A40EB11CF201608171818281BA
:1007800093810E2DA3010E94740A2C01098100FFA0
:1007900002C003FF07C031FC08C032FE09C030E2CE
:1007A000232E07C02DE2222E04C09BE2292E01C079
:1007B000212C802F8C7019F0211068C2A8C237FE3E
:1007C0000FC0E40C04FF04C08A81813309F4EA9469
:1007D0001E1474F5F8E0FE1578F588E0E82E2CC0BC
:1007E00036FC2AC0812F90E0841595059CF02CEFF3
:1007F00042162FEF520674F0432D4068342E0AC083
:10080000E2E0F0E0EC0FFD1FE10FF11D808180338D
:1008100019F411501111F4CF37FE0EC0EE24E394F9
:10082000E10E812F90E0481659062CF4141904C0EB
:10083000EE24E39401C010E037FE06C01414150442
:1008400034F4C201019605C085E090E002C081E069
:1008500090E021100196112331F0212F30E02F5F1D
:100860003F4F820F931F2F2D30E08217930714F410
:10087000F81A01C0F12C832D897049F4FF2039F05A
:10088000B60180E290E00E94620BFA94F7CF22203A
:1008900029F0B601822D90E00E94620B33FC09C062
:1008A000FF2039F0B60180E390E00E94620BFA94D9
:1008B000F7CF37FE5AC0942D852D57FE02C090E029
:1008C00080E0292E382E20E030E0A2014E19510997
:1008D0005D874C87A201421953095F874E87612FBC
:1008E00070E044275527461B570B598B488B5FEF09
:1008F0002516350649F4B6018EE290E02A8B3B8B33
:100900000E94620B3B892A89421453046CF04C8587
:100910005D854215530544F4EE85FF85E20FF31F14
:10092000E60DF71D818101C080E351E0251A3108F1
:100930002F5F3F4F48895989241635064CF0B60180
:1009400090E02A8B3B8B0E94620B2A893B89CFCF98
:100950002414350439F49A81963318F4953311F43C
:1009600004FF81E3B60190E04BC08A81813309F036
:100970000F7EB60190E00E94620B111105C034FC9D
:1009800018C085E690E017C0B6018EE290E00E94A4
:10099000620B82E0EE24E394E80EF301E80FF11D10
:1009A0008081B60190E00E94620B11508E2D91F76C
:1009B000E6CF85E490E0B6010E94620B57FC05C0CB
:1009C0004114510439F404FF05C051944194510875
:1009D0008DE201C08BE2B60190E00E94620B80E3E1
:1009E0009AE0491651042CF08F5F5AE0451A5108DD
:1009F000F7CFB60190E00E94620BB601C201C0962B
:100A00000E94620B57C1833631F0833779F083350A
:100A100009F058C021C05201E2E0AE0EB11CF20153
:100A20008081898301E010E0230114C05201F2E0CB
:100A3000AF0EB11CF2014080518026FF03C0612F30
:100A400070E002C06FEF7FEFC2012A8B0E94570B4C
:100A50008C012A892F7715C05201F2E0AF0EB11C2C
:100A6000F2014080518026FF03C0612F70E002C078
:100A70006FEF7FEFC2012A8B0E944C0B8C012A89F9
:100A80002068322E23FD1AC08F2D90E00817190719
:100A9000A8F4B60180E290E00E94620BFA94F4CFD1
:100AA000F20137FC859137FE81912F01B60190E06C
:100AB0000E94620BF110FA94015011090115110501
:100AC00079F7F8C0843611F0893659F5520127FFBD
:100AD00009C0F4E0AF0EB11CF20160817181828126
:100AE00093810AC0F2E0AF0EB11CF2016081718106
:100AF000072E000C880B990B2F76322E97FF09C01A
:100B000090958095709561957F4F8F4F9F4F20688E
:100B1000322E2AE030E0A3010E94BD0BE82EE61839
:100B20003FC0022F853721F40F7E2AE030E01DC040
:100B3000097F8F3691F018F4883559F0C5C0803799
:100B400019F0883711F0C0C0006104FF09C00460CB
:100B500007C024FF08C0066006C028E030E005C0DA
:100B600020E130E002C020E132E0520107FF09C07D
:100B7000F4E0AF0EB11CF20160817181828193813A
:100B800008C0F2E0AF0EB11CF2016081718180E01B
:100B900090E0A3010E94BD0BE82EE6180F77302EDF
:100BA00036FE0BC0332D3E7FE11650F434FE0AC0F2
:100BB00032FC08C0332D3E7E05C00E2D332D03C000
:100BC0000E2D01C0012F34FF0CC0FE01EE0DF11DF2
:100BD0008081803311F4397E08C032FF05C00E5F7A
:100BE00004C0832F867809F00F5F33FD13C030FFF8
:100BF00006C01E2D0F1518F41F0D101B0F2D0F15FD
:100C000068F4B60180E290E03B8B0E94620B0F5FBC
:100C10003B89F5CF0F1510F4F01A01C0F12C34FF09
:100C200012C0B60180E390E03B8B0E94620B3B89CF
:100C300032FF17C031FD03C088E790E002C088E5AD
:100C400090E0B6010CC0832F867859F031FF02C0C6
:100C50008BE201C080E237FD8DE2B60190E00E9498
:100C6000620BE11638F4B60180E390E00E94620B5B
:100C70001150F7CFEA94F301EE0DF11D8081B6011A
:100C800090E00E94620BE110F5CF14C0F4E0FF1574
:100C900058F584E0F81A33FE1EC0211026C003FF69
:100CA0002AC008E610E0F32DF0713F2EF801849180
:100CB000811124C0FF2009F4E5CCB60180E290E068
:100CC0000E94620BFA94F6CFF6018681978126C0C6
:100CD0008FEF9FEF23C0B60180E290E00E94620B8D
:100CE000FA94F110F8CFD9CFF12CB601822D90E013
:100CF0000E94620BD4CF0CE610E0D5CF31108052A9
:100D0000B60190E00E94620B0F5F1F4FCFCF23E030
:100D10002F1510F483E0BECFF12CC1CF6396E2E132
:100D20000C945608CF93DF93CDB7DEB7C757D109E0
:100D30000FB6F894DEBF0FBECDBF88E0E0E0F1E073
:100D4000DE01A359BF4F01900D928A95E1F7CE01C4
:100D500083599F4F0E943F01109280008091810033
:100D600085608093810080918100886080938100FC
:100D700010928500109284008BE49CE4909389008B
:100D80008093880080916F00826080936F008BE079
:100D9000E8E0F1E0DE01AE59BF4F01900D928A9577
:100DA000E1F7CE018E599F4F0E9418025298539A34
:100DB0005B98209A2898CE0101966C0180E5D601B7
:100DC0001D928A95E9F789E190E09C838B8382E309
:100DD00090E09A87898728E230E03C872B872CE8CF
:100DE00030E03A8B298B26E930E03C8B2B8B48ECAA
:100DF00050E05A8F498F4AEA50E05C8F4B8F44E0B5
:100E000051E05AA349A34CED50E05CA34BA342E24E
:100E100051E05AA749A740EF50E05CA74BA740E438
:100E200051E05AAB49AB47ED50E05CAB4BAB4EE504
:100E300051E05AAF49AF3CAF2BAF20E931E02396E8
:100E40003FAF2EAF239724E630E025963FAF2EAF7D
:100E5000259724EF31E02B963FAF2EAF2B972D96A1
:100E60009FAF8EAF2D977894F12C8E010F5A1F4FA4
:100E7000BFEFE4E3FCE0B150E040F040E1F700C038
:100E8000000080913D0190913E01853F914038F0F6
:100E900010923C0110923E0110923D01F12C809184
:100EA0003E018F9380913D018F93A3E1B1E0BF9309
:100EB000AF931F930F930E949A0B60E080E00E9413
:100EC000B701C8010E94C9010F900F900F900F90B9
:100ED0000F900F9080913C01811105C04A9B03C087
:100EE000F1E0F0933C010E946302E62EE6967FAFAC
:100EF000E697E7968FAFE797E8969FAFE8979F93BF
:100F00008F93E6962FADE6972F936F93AEE1B1E006
:100F1000BF93AF931F930F930E949A0B60E082E000
:100F20000E94B701C8010E94C901EF2DF0E0DF0166
:100F3000119683E0EE0FFF1F8A95E1F7EC0DFD1D82
:100F4000A280B38093E0AA0FBB1F9A95E1F7AC0D86
:100F5000BD1D8D909C9011976080718012966D914F
:100F60007C9113976A197B09072E000C880B990B4B
:100F70000E9457091B012C01B40166197709072E3D
:100F8000000C880B990B0E9457099B01AC01C20110
:100F9000B1010E94E3081B012C0160913D01709199
:100FA0003E016619770980E090E00E9455099B0197
:100FB000AC01C201B1010E94070A2B013C01B5013D
:100FC000BB0C880B990B0E9457099B01AC01C30114
:100FD000B2010E9472083B015C019F938F937F9343
:100FE0006F93ADE2B1E0BF93AF931F930F930E9455
:100FF0009A0B60E081E00E94B701C8010E94C9011C
:101000000FB6F894DEBF0FBECDBF80913D01909129
:101010003E018815990588F0F394F60198E0F99E51
:10102000E00DF11D112462817381072E000C880BE5
:10103000990B0E9457093B015C0180913C01882378
:10104000B9F0262D372D4A2D5B2DE696AFADE697EC
:10105000E796FFADE797E896EFADE8976E2D7A2F0C
:101060008F2F9E2F0E94DE08181614F0289A00CFAA
:101070002898FECE2F923F924F925F926F927F926E
:101080008F929F92AF92BF92CF92DF92EF92FF9298
:101090000F931F93CF93DF93CDB7DEB7CA1BDB0B44
:1010A0000FB6F894DEBF0FBECDBF09942A883988E9
:1010B00048885F846E847D848C849B84AA84B984F0
:1010C000C884DF80EE80FD800C811B81AA81B981FC
:1010D000CE0FD11D0FB6F894DEBF0FBECDBFED0110
:1010E00008955058BB27AA270E9489080C94CD095F
:1010F0000E94BF0938F00E94C60920F039F49F3FD2
:1011000019F426F40C94BC090EF4E095E7FB0C945A
:10111000B609E92F0E94DE0958F3BA176207730770
:101120008407950720F079F4A6F50C94000A0EF4D4
:10113000E0950B2EBA2FA02D0B01B90190010C01E7
:10114000CA01A0011124FF27591B99F0593F50F4FF
:10115000503E68F11A16F040A22F232F342F442757
:10116000585FF3CF469537952795A795F04053954F
:10117000C9F77EF41F16BA0B620B730B840BBAF01F
:101180009150A1F0FF0FBB1F661F771F881FC2F78A
:101190000EC0BA0F621F731F841F48F4879577959E
:1011A0006795B795F7959E3F08F0B0CF9395880F58
:1011B00008F09927EE0F9795879508950E94920958
:1011C00008F481E008950E94F7080C94CD090E946C
:1011D000C60958F00E94BF0940F029F45F3F29F08A
:1011E0000C94B60951110C94010A0C94BC090E948C
:1011F000DE0968F39923B1F3552391F3951B550B41
:10120000BB27AA2762177307840738F09F5F5F4FD9
:10121000220F331F441FAA1FA9F335D00E2E3AF018
:10122000E0E832D091505040E695001CCAF72BD030
:10123000FE2F29D0660F771F881FBB1F2617370781
:101240004807AB07B0E809F0BB0B802DBF01FF27B3
:1012500093585F4F3AF09E3F510578F00C94B609D1
:101260000C94010A5F3FE4F3983ED4F3869577959A
:101270006795B795F7959F5FC9F7880F911D96956C
:10128000879597F90895E1E0660F771F881FBB1FC8
:10129000621773078407BA0720F0621B730B840B75
:1012A000BA0BEE1F88F7E0950895E89409C097FB04
:1012B0003EF490958095709561957F4F8F4F9F4F2D
:1012C0009923A9F0F92F96E9BB279395F695879571
:1012D00077956795B795F111F8CFFAF4BB0F11F434
:1012E00060FF1BC06F5F7F4F8F4F9F4F16C08823DB
:1012F00011F096E911C0772321F09EE8872F762F11
:1013000005C0662371F096E8862F70E060E02AF051
:101310009A95660F771F881FDAF7880F969587953D
:1013200097F90895990F0008550FAA0BE0E8FEEF12
:1013300016161706E807F907C0F012161306E40799
:10134000F50798F0621B730B840B950B39F40A2692
:1013500061F0232B242B252B21F408950A2609F470
:10136000A140A6958FEF811D811D089597F99F6774
:1013700080E870E060E008959FEF80EC089500241D
:101380000A941616170618060906089500240A94EA
:1013900012161306140605060895092E0394000C70
:1013A00011F4882352F0BB0F40F4BF2B11F460FFFF
:1013B00004C06F5F7F4F8F4F9F4F089557FD905828
:1013C000440F551F59F05F3F71F04795880F97FB09
:1013D000991F61F09F3F79F08795089512161306C3
:1013E0001406551FF2CF4695F1DF08C016161706F2
:1013F0001806991FF1CF8695710561050894089527
:10140000E894BB2766277727CB0197F908950E94B8
:101410001A0A0C94CD090E94BF0938F00E94C6092F
:1014200020F0952311F00C94B6090C94BC091124FA
:101430000C94010A0E94DE0970F3959FC1F3950F89
:1014400050E0551F629FF001729FBB27F00DB11D48
:10145000639FAA27F00DB11DAA1F649F6627B00DD8
:10146000A11D661F829F2227B00DA11D621F739FC1
:10147000B00DA11D621F839FA00D611D221F749FCF
:101480003327A00D611D231F849F600D211D822F16
:10149000762F6A2F11249F5750409AF0F1F088233D
:1014A0004AF0EE0FFF1FBB1F661F771F881F91506A
:1014B0005040A9F79E3F510580F00C94B6090C945A
:1014C000010A5F3FE4F3983ED4F3869577956795DC
:1014D000B795F795E7959F5FC1F7FE2B880F911D94
:1014E0009695879597F90895283008F027E03327D7
:1014F000DA01990F311D87FD916000966105710534
:1015000039F432602E5F3D9330E32A95E1F7089578
:101510009F3F30F080387105610509F03C5F3C5F0A
:101520003D93913008F08068911DDF93CF931F9316
:101530000F93FF92EF92192F987F9695E92F96952A
:101540009695E90FFF27E653FF4F99273327EE249F
:10155000FF24A701E70105900894079428F4360FAB
:10156000E71EF81E491F511D660F771F881F991F20
:101570000694A1F70590079428F4E70EF81E491F7A
:10158000561FC11D770F881F991F661F0694A1F76C
:101590000590079428F4F80E491F561FC71FD11D48
:1015A000880F991F661F771F0694A1F7059007946F
:1015B00020F4490F561FC71FD81F990F661F771FAA
:1015C000881F0694A9F784911095177041F0D6955D
:1015D000C79557954795F794E7941A95C1F7E0E7B3
:1015E000F0E068941590159135916591959105906D
:1015F0007FE27395E118F10A430B560BC90BD00932
:10160000C0F7E10CF11E431F561FC91FD01D7EF409
:10161000703311F48A95E6CFE894015030F0080F4A
:101620000AF40027021708F4202F2395022F7A339B
:1016300028F079E37D932A95E9F710C07D932A95E8
:1016400089F6069497956795379517951794E1183D
:10165000F10A430B560BC90BD00998F023957E91E4
:1016600073957A3308F070E37C932013B8F77E917A
:1016700070617D9330F0839571E37D9370E32A95DB
:10168000E1F71124EF90FF900F911F91CF91DF911F
:10169000992787FD90950895FC0105906150704051
:1016A0000110D8F7809590958E0F9F1F0895FC012B
:1016B0006150704001900110D8F7809590958E0F81
:1016C0009F1F08950F931F93CF93DF93FB012381F7
:1016D00021FD03C08FEF9FEF28C022FF16C0468177
:1016E0005781248135814217530744F4A081B18189
:1016F0009D012F5F3F4F318320838C93268137815B
:101700002F5F3F4F3783268310C0EB01092F182F1F
:101710000084F185E02D0995892BE1F68E819F816A
:1017200001969F838E83812F902FDF91CF911F9100
:101730000F910895AEE0B0E0E0EAFBE00C944808B9
:101740000D891E8986E08C831A8309838FEF9FE7BA
:101750009E838D83AE01475E5F4F6F89788DCE018A
:1017600001960E9416032F813885F801E20FF31FBE
:1017700010822E96E4E00C946408FA01AA2728301F
:1017800051F1203181F1E8946F936E7F6E5F7F4F4E
:101790008F4F9F4FAF4FB1E03ED0B4E03CD0670FCA
:1017A000781F891F9A1FA11D680F791F8A1F911D1D
:1017B000A11D6A0F711D811D911DA11D20D009F46D
:1017C00068943F912AE0269F11243019305D3193AF
:1017D000DEF6CF010895462F4770405D4193B3E098
:1017E0000FD0C9F7F6CF462F4F70405D4A3318F03F
:1017F000495D31FD4052419302D0A9F7EACFB4E0F0
:10180000A6959795879577956795BA95C9F70097A7
:101810006105710508959B01AC010A2E0694579548
:10182000479537952795BA95C9F7620F731F841F9F
:0A183000951FA01D0895F894FFCF46
:10183A0024002500030502012A002B0029000706BF
:10184A0005020054696D653A2025336473005465B6
:10185A006D702E3A2025372E3266DF4300536574A9
:0C186A00702E3A2025372E3266DF430036
:00000001FF
